{
  "contractName": "Appointment",
  "abi": [
    {
      "constant": true,
      "inputs": [
        {
          "name": "",
          "type": "address"
        },
        {
          "name": "",
          "type": "uint256"
        }
      ],
      "name": "appointments",
      "outputs": [
        {
          "name": "patientName",
          "type": "string"
        },
        {
          "name": "patientAge",
          "type": "string"
        },
        {
          "name": "patientGender",
          "type": "string"
        },
        {
          "name": "patientbloodgroup",
          "type": "string"
        },
        {
          "name": "patientAllergies",
          "type": "string"
        }
      ],
      "payable": false,
      "stateMutability": "view",
      "type": "function"
    },
    {
      "constant": false,
      "inputs": [
        {
          "name": "patientName",
          "type": "string"
        },
        {
          "name": "patientAge",
          "type": "string"
        },
        {
          "name": "patientGender",
          "type": "string"
        },
        {
          "name": "patientbloodgroup",
          "type": "string"
        },
        {
          "name": "patientAllergies",
          "type": "string"
        }
      ],
      "name": "createAppointment",
      "outputs": [],
      "payable": false,
      "stateMutability": "nonpayable",
      "type": "function"
    },
    {
      "constant": true,
      "inputs": [],
      "name": "getAppointments",
      "outputs": [
        {
          "components": [
            {
              "name": "patientName",
              "type": "string"
            },
            {
              "name": "patientAge",
              "type": "string"
            },
            {
              "name": "patientGender",
              "type": "string"
            },
            {
              "name": "patientbloodgroup",
              "type": "string"
            },
            {
              "name": "patientAllergies",
              "type": "string"
            }
          ],
          "name": "",
          "type": "tuple[]"
        }
      ],
      "payable": false,
      "stateMutability": "view",
      "type": "function"
    }
  ],
  "bytecode": "0x608060405234801561001057600080fd5b506109c5806100206000396000f3fe608060405260043610610051576000357c01000000000000000000000000000000000000000000000000000000009004806302911c391461005657806385ab23c91461009557806396b80d08146100be575b600080fd5b34801561006257600080fd5b5061007d6004803603610078919081019061063d565b6100e9565b60405161008c93929190610824565b60405180910390f35b3480156100a157600080fd5b506100bc60048036036100b79190810190610679565b61025f565b005b3480156100ca57600080fd5b506100d3610330565b6040516100e09190610802565b60405180910390f35b60006020528160005260406000208181548110151561010457fe5b906000526020600020906003020160009150915050806000018054600181600116156101000203166002900480601f0160208091040260200160405190810160405280929190818152602001828054600181600116156101000203166002900480156101b15780601f10610186576101008083540402835291602001916101b1565b820191906000526020600020905b81548152906001019060200180831161019457829003601f168201915b505050505090806001018054600181600116156101000203166002900480601f01602080910402602001604051908101604052809291908181526020018280546001816001161561010002031660029004801561024f5780601f106102245761010080835404028352916020019161024f565b820191906000526020600020905b81548152906001019060200180831161023257829003601f168201915b5050505050908060020154905083565b6000803373ffffffffffffffffffffffffffffffffffffffff1673ffffffffffffffffffffffffffffffffffffffff1681526020019081526020016000206060604051908101604052808581526020018481526020018381525090806001815401808255809150509060018203906000526020600020906003020160009091929091909150600082015181600001908051906020019061030092919061051a565b50602082015181600101908051906020019061031d92919061051a565b5060408201518160020155505050505050565b60606000803373ffffffffffffffffffffffffffffffffffffffff1673ffffffffffffffffffffffffffffffffffffffff168152602001908152602001600020805480602002602001604051908101604052809291908181526020016000905b82821015610511578382906000526020600020906003020160606040519081016040529081600082018054600181600116156101000203166002900480601f01602080910402602001604051908101604052809291908181526020018280546001816001161561010002031660029004801561044d5780601f106104225761010080835404028352916020019161044d565b820191906000526020600020905b81548152906001019060200180831161043057829003601f168201915b50505050508152602001600182018054600181600116156101000203166002900480601f0160208091040260200160405190810160405280929190818152602001828054600181600116156101000203166002900480156104ef5780601f106104c4576101008083540402835291602001916104ef565b820191906000526020600020905b8154815290600101906020018083116104d257829003601f168201915b5050505050815260200160028201548152505081526020019060010190610390565b50505050905090565b828054600181600116156101000203166002900490600052602060002090601f016020900481019282601f1061055b57805160ff1916838001178555610589565b82800160010185558215610589579182015b8281111561058857825182559160200191906001019061056d565b5b509050610596919061059a565b5090565b6105bc91905b808211156105b85760008160009055506001016105a0565b5090565b90565b60006105cb823561091c565b905092915050565b600082601f83011215156105e657600080fd5b81356105f96105f482610896565b610869565b9150808252602083016020830185838301111561061557600080fd5b610620838284610938565b50505092915050565b6000610635823561092e565b905092915050565b6000806040838503121561065057600080fd5b600061065e858286016105bf565b925050602061066f85828601610629565b9150509250929050565b60008060006060848603121561068e57600080fd5b600084013567ffffffffffffffff8111156106a857600080fd5b6106b4868287016105d3565b935050602084013567ffffffffffffffff8111156106d157600080fd5b6106dd868287016105d3565b92505060406106ee86828701610629565b9150509250925092565b6000610703826108cf565b8084526020840193508360208202850161071c856108c2565b60005b8481101561075557838303885261073783835161079c565b9250610742826108e5565b915060208801975060018101905061071f565b508196508694505050505092915050565b6000610771826108da565b808452610785816020860160208601610947565b61078e8161097a565b602085010191505092915050565b600060608301600083015184820360008601526107b98282610766565b915050602083015184820360208601526107d38282610766565b91505060408301516107e860408601826107f3565b508091505092915050565b6107fc81610912565b82525050565b6000602082019050818103600083015261081c81846106f8565b905092915050565b6000606082019050818103600083015261083e8186610766565b905081810360208301526108528185610766565b905061086160408301846107f3565b949350505050565b6000604051905081810181811067ffffffffffffffff8211171561088c57600080fd5b8060405250919050565b600067ffffffffffffffff8211156108ad57600080fd5b601f19601f8301169050602081019050919050565b6000602082019050919050565b600081519050919050565b600081519050919050565b6000602082019050919050565b600073ffffffffffffffffffffffffffffffffffffffff82169050919050565b6000819050919050565b6000610927826108f2565b9050919050565b6000819050919050565b82818337600083830152505050565b60005b8381101561096557808201518184015260208101905061094a565b83811115610974576000848401525b50505050565b6000601f19601f830116905091905056fea265627a7a72305820a65b331b9559c4ae59e16f1afe4eaa50c20b0aef5c61fdc4fcc6e42e4c0e65ea6c6578706572696d656e74616cf50037",
  "source": "// SPDX-License-Identifier: MIT\r\npragma solidity >=0.4.22 <0.9.0;\r\n\r\npragma experimental ABIEncoderV2;\r\n\r\ncontract Appointment {\r\n    struct AppointmentDetails {\r\n        string patientName;\r\n        string doctorName;\r\n        uint appointmentDate;\r\n    }\r\n\r\n    mapping(address => AppointmentDetails[]) public appointments;\r\n\r\n    function createAppointment(\r\n        string memory _patientName,\r\n        string memory _doctorName,\r\n        uint _appointmentDate\r\n    ) public {\r\n        appointments[msg.sender].push(AppointmentDetails(_patientName, _doctorName, _appointmentDate));\r\n    }\r\n\r\n    function getAppointments() public view returns (AppointmentDetails[] memory) {\r\n        return appointments[msg.sender];\r\n    }\r\n}\r\n",
  "sourcePath": "E:\\Blockchain\\fcr-demo-contract\\contracts\\Appointment.sol",
  "compiler": {
    "name": "solc",
    "version": "0.5.1+commit.c8a2cb62.Emscripten.clang"
  },
  "schemaVersion": "3.4.16",
  "updatedAt": "2024-07-14T01:29:49.396Z",
  "networkType": "ethereum",
  "devdoc": {
    "methods": {}
  },
  "userdoc": {
    "methods": {}
  }
}